{
  "_format": "hh-sol-artifact-1",
  "contractName": "ReputationEngine",
  "sourceName": "contracts/ReputationEngine.sol",
  "abi": [
    {
      "inputs": [
        {
          "internalType": "address",
          "name": "initialOwner",
          "type": "address"
        }
      ],
      "stateMutability": "nonpayable",
      "type": "constructor"
    },
    {
      "inputs": [
        {
          "internalType": "address",
          "name": "owner",
          "type": "address"
        }
      ],
      "name": "OwnableInvalidOwner",
      "type": "error"
    },
    {
      "inputs": [
        {
          "internalType": "address",
          "name": "account",
          "type": "address"
        }
      ],
      "name": "OwnableUnauthorizedAccount",
      "type": "error"
    },
    {
      "anonymous": false,
      "inputs": [
        {
          "indexed": true,
          "internalType": "uint256",
          "name": "agentId",
          "type": "uint256"
        },
        {
          "indexed": false,
          "internalType": "bool",
          "name": "success",
          "type": "bool"
        }
      ],
      "name": "MissionRecorded",
      "type": "event"
    },
    {
      "anonymous": false,
      "inputs": [
        {
          "indexed": true,
          "internalType": "address",
          "name": "previousOwner",
          "type": "address"
        },
        {
          "indexed": true,
          "internalType": "address",
          "name": "newOwner",
          "type": "address"
        }
      ],
      "name": "OwnershipTransferred",
      "type": "event"
    },
    {
      "anonymous": false,
      "inputs": [
        {
          "indexed": true,
          "internalType": "uint256",
          "name": "agentId",
          "type": "uint256"
        },
        {
          "indexed": false,
          "internalType": "uint256",
          "name": "newScore",
          "type": "uint256"
        },
        {
          "indexed": false,
          "internalType": "uint256",
          "name": "totalMissions",
          "type": "uint256"
        }
      ],
      "name": "ReputationUpdated",
      "type": "event"
    },
    {
      "inputs": [
        {
          "internalType": "uint256",
          "name": "_agentId",
          "type": "uint256"
        }
      ],
      "name": "getReputation",
      "outputs": [
        {
          "components": [
            {
              "internalType": "uint256",
              "name": "totalMissions",
              "type": "uint256"
            },
            {
              "internalType": "uint256",
              "name": "completedMissions",
              "type": "uint256"
            },
            {
              "internalType": "uint256",
              "name": "failedMissions",
              "type": "uint256"
            },
            {
              "internalType": "uint256",
              "name": "score",
              "type": "uint256"
            },
            {
              "internalType": "uint256",
              "name": "lastUpdated",
              "type": "uint256"
            }
          ],
          "internalType": "struct ReputationEngine.Reputation",
          "name": "",
          "type": "tuple"
        }
      ],
      "stateMutability": "view",
      "type": "function"
    },
    {
      "inputs": [
        {
          "internalType": "uint256",
          "name": "_agentId",
          "type": "uint256"
        }
      ],
      "name": "getScore",
      "outputs": [
        {
          "internalType": "uint256",
          "name": "",
          "type": "uint256"
        }
      ],
      "stateMutability": "view",
      "type": "function"
    },
    {
      "inputs": [
        {
          "internalType": "uint256",
          "name": "_agentId",
          "type": "uint256"
        },
        {
          "internalType": "uint256",
          "name": "_threshold",
          "type": "uint256"
        }
      ],
      "name": "isReliable",
      "outputs": [
        {
          "internalType": "bool",
          "name": "",
          "type": "bool"
        }
      ],
      "stateMutability": "view",
      "type": "function"
    },
    {
      "inputs": [],
      "name": "owner",
      "outputs": [
        {
          "internalType": "address",
          "name": "",
          "type": "address"
        }
      ],
      "stateMutability": "view",
      "type": "function"
    },
    {
      "inputs": [
        {
          "internalType": "uint256",
          "name": "_agentId",
          "type": "uint256"
        },
        {
          "internalType": "bool",
          "name": "_success",
          "type": "bool"
        }
      ],
      "name": "recordMissionResult",
      "outputs": [],
      "stateMutability": "nonpayable",
      "type": "function"
    },
    {
      "inputs": [],
      "name": "renounceOwnership",
      "outputs": [],
      "stateMutability": "nonpayable",
      "type": "function"
    },
    {
      "inputs": [
        {
          "internalType": "uint256",
          "name": "",
          "type": "uint256"
        }
      ],
      "name": "reputations",
      "outputs": [
        {
          "internalType": "uint256",
          "name": "totalMissions",
          "type": "uint256"
        },
        {
          "internalType": "uint256",
          "name": "completedMissions",
          "type": "uint256"
        },
        {
          "internalType": "uint256",
          "name": "failedMissions",
          "type": "uint256"
        },
        {
          "internalType": "uint256",
          "name": "score",
          "type": "uint256"
        },
        {
          "internalType": "uint256",
          "name": "lastUpdated",
          "type": "uint256"
        }
      ],
      "stateMutability": "view",
      "type": "function"
    },
    {
      "inputs": [
        {
          "internalType": "address",
          "name": "newOwner",
          "type": "address"
        }
      ],
      "name": "transferOwnership",
      "outputs": [],
      "stateMutability": "nonpayable",
      "type": "function"
    }
  ],
  "bytecode": "0x608060405234801561001057600080fd5b506040516106fa3803806106fa83398101604081905261002f916100be565b806001600160a01b03811661005e57604051631e4fbdf760e01b81526000600482015260240160405180910390fd5b6100678161006e565b50506100ee565b600080546001600160a01b038381166001600160a01b0319831681178455604051919092169283917f8be0079c531659141344cd1fd0a4f28419497f9722a3daafe3b4186f6b6457e09190a35050565b6000602082840312156100d057600080fd5b81516001600160a01b03811681146100e757600080fd5b9392505050565b6105fd806100fd6000396000f3fe608060405234801561001057600080fd5b50600436106100885760003560e01c806389370d8b1161005b57806389370d8b146101445780638da5cb5b14610199578063ec503ef7146101b4578063f2fde38b146101d757600080fd5b80630e1af57b1461008d578063715018a6146100c357806372fa9b85146100cd578063878173a814610131575b600080fd5b6100b061009b3660046104bf565b60009081526001602052604090206003015490565b6040519081526020015b60405180910390f35b6100cb6101ea565b005b6101096100db3660046104bf565b6001602081905260009182526040909120805491810154600282015460038301546004909301549192909185565b604080519586526020860194909452928401919091526060830152608082015260a0016100ba565b6100cb61013f3660046104d8565b6101fe565b6101576101523660046104bf565b610316565b6040516100ba9190600060a082019050825182526020830151602083015260408301516040830152606083015160608301526080830151608083015292915050565b6000546040516001600160a01b0390911681526020016100ba565b6101c76101c236600461050d565b610396565b60405190151581526020016100ba565b6100cb6101e536600461052f565b6103ff565b6101f2610442565b6101fc600061046f565b565b610206610442565b600082815260016020526040812080549091829061022383610575565b9190505550811561024a5760018101805490600061024083610575565b9190505550610262565b60028101805490600061025c83610575565b91905055505b80541561028c578054600182015461027c9061271061058e565b61028691906105a5565b60038201555b426004820155604051821515815283907f4b54ffb9748c85a2e67a142092520666c8402ce895b0a02028569f9c6c066ced9060200160405180910390a26003810154815460405185927fd9f66501c000653403d74ddfa62a75c8dd44cc05d910ee81bf1d852262dd5fa19261030992918252602082015260400190565b60405180910390a2505050565b6103486040518060a0016040528060008152602001600081526020016000815260200160008152602001600081525090565b50600090815260016020818152604092839020835160a08101855281548152928101549183019190915260028101549282019290925260038201546060820152600490910154608082015290565b6000828152600160208181526040808420815160a08101835281548082529482015493810193909352600281015491830191909152600380820154606084015260049091015460808301529091108015906103f5575082816060015110155b9150505b92915050565b610407610442565b6001600160a01b03811661043657604051631e4fbdf760e01b8152600060048201526024015b60405180910390fd5b61043f8161046f565b50565b6000546001600160a01b031633146101fc5760405163118cdaa760e01b815233600482015260240161042d565b600080546001600160a01b038381166001600160a01b0319831681178455604051919092169283917f8be0079c531659141344cd1fd0a4f28419497f9722a3daafe3b4186f6b6457e09190a35050565b6000602082840312156104d157600080fd5b5035919050565b600080604083850312156104eb57600080fd5b823591506020830135801515811461050257600080fd5b809150509250929050565b6000806040838503121561052057600080fd5b50508035926020909101359150565b60006020828403121561054157600080fd5b81356001600160a01b038116811461055857600080fd5b9392505050565b634e487b7160e01b600052601160045260246000fd5b6000600182016105875761058761055f565b5060010190565b80820281158282048414176103f9576103f961055f565b6000826105c257634e487b7160e01b600052601260045260246000fd5b50049056fea264697066735822122097424e291fec176dd08b846a6803fe3bf81bfd289f73ee3a0b0137546f7dfb2a64736f6c63430008140033",
  "linkReferences": {},
  "deployedLinkReferences": {}
}