{
  "_format": "hh-sol-artifact-1",
  "contractName": "MissionManager",
  "sourceName": "contracts/MissionManager.sol",
  "abi": [
    {
      "inputs": [
        {
          "internalType": "address",
          "name": "initialOwner",
          "type": "address"
        },
        {
          "internalType": "address",
          "name": "_rewardToken",
          "type": "address"
        }
      ],
      "stateMutability": "nonpayable",
      "type": "constructor"
    },
    {
      "inputs": [
        {
          "internalType": "address",
          "name": "owner",
          "type": "address"
        }
      ],
      "name": "OwnableInvalidOwner",
      "type": "error"
    },
    {
      "inputs": [
        {
          "internalType": "address",
          "name": "account",
          "type": "address"
        }
      ],
      "name": "OwnableUnauthorizedAccount",
      "type": "error"
    },
    {
      "anonymous": false,
      "inputs": [
        {
          "indexed": true,
          "internalType": "uint256",
          "name": "missionId",
          "type": "uint256"
        },
        {
          "indexed": true,
          "internalType": "uint256",
          "name": "agentId",
          "type": "uint256"
        }
      ],
      "name": "MissionAssigned",
      "type": "event"
    },
    {
      "anonymous": false,
      "inputs": [
        {
          "indexed": true,
          "internalType": "uint256",
          "name": "missionId",
          "type": "uint256"
        }
      ],
      "name": "MissionCancelled",
      "type": "event"
    },
    {
      "anonymous": false,
      "inputs": [
        {
          "indexed": true,
          "internalType": "uint256",
          "name": "missionId",
          "type": "uint256"
        },
        {
          "indexed": true,
          "internalType": "uint256",
          "name": "agentId",
          "type": "uint256"
        },
        {
          "indexed": false,
          "internalType": "uint256",
          "name": "reward",
          "type": "uint256"
        }
      ],
      "name": "MissionCompleted",
      "type": "event"
    },
    {
      "anonymous": false,
      "inputs": [
        {
          "indexed": true,
          "internalType": "uint256",
          "name": "missionId",
          "type": "uint256"
        },
        {
          "indexed": false,
          "internalType": "string",
          "name": "title",
          "type": "string"
        },
        {
          "indexed": true,
          "internalType": "address",
          "name": "creator",
          "type": "address"
        },
        {
          "indexed": false,
          "internalType": "uint256",
          "name": "reward",
          "type": "uint256"
        }
      ],
      "name": "MissionCreated",
      "type": "event"
    },
    {
      "anonymous": false,
      "inputs": [
        {
          "indexed": true,
          "internalType": "uint256",
          "name": "missionId",
          "type": "uint256"
        },
        {
          "indexed": true,
          "internalType": "uint256",
          "name": "agentId",
          "type": "uint256"
        }
      ],
      "name": "MissionFailed",
      "type": "event"
    },
    {
      "anonymous": false,
      "inputs": [
        {
          "indexed": true,
          "internalType": "address",
          "name": "previousOwner",
          "type": "address"
        },
        {
          "indexed": true,
          "internalType": "address",
          "name": "newOwner",
          "type": "address"
        }
      ],
      "name": "OwnershipTransferred",
      "type": "event"
    },
    {
      "inputs": [
        {
          "internalType": "uint256",
          "name": "_missionId",
          "type": "uint256"
        },
        {
          "internalType": "uint256",
          "name": "_agentId",
          "type": "uint256"
        }
      ],
      "name": "assignMission",
      "outputs": [],
      "stateMutability": "nonpayable",
      "type": "function"
    },
    {
      "inputs": [
        {
          "internalType": "uint256",
          "name": "_missionId",
          "type": "uint256"
        }
      ],
      "name": "cancelMission",
      "outputs": [],
      "stateMutability": "nonpayable",
      "type": "function"
    },
    {
      "inputs": [
        {
          "internalType": "uint256",
          "name": "_missionId",
          "type": "uint256"
        },
        {
          "internalType": "address",
          "name": "_agentOwner",
          "type": "address"
        }
      ],
      "name": "claimReward",
      "outputs": [],
      "stateMutability": "nonpayable",
      "type": "function"
    },
    {
      "inputs": [
        {
          "internalType": "uint256",
          "name": "_missionId",
          "type": "uint256"
        }
      ],
      "name": "completeMission",
      "outputs": [],
      "stateMutability": "nonpayable",
      "type": "function"
    },
    {
      "inputs": [
        {
          "internalType": "string",
          "name": "_title",
          "type": "string"
        },
        {
          "internalType": "string",
          "name": "_description",
          "type": "string"
        },
        {
          "internalType": "uint256",
          "name": "_reward",
          "type": "uint256"
        }
      ],
      "name": "createMission",
      "outputs": [],
      "stateMutability": "nonpayable",
      "type": "function"
    },
    {
      "inputs": [
        {
          "internalType": "uint256",
          "name": "_missionId",
          "type": "uint256"
        }
      ],
      "name": "failMission",
      "outputs": [],
      "stateMutability": "nonpayable",
      "type": "function"
    },
    {
      "inputs": [
        {
          "internalType": "uint256",
          "name": "_missionId",
          "type": "uint256"
        }
      ],
      "name": "getMission",
      "outputs": [
        {
          "components": [
            {
              "internalType": "string",
              "name": "title",
              "type": "string"
            },
            {
              "internalType": "string",
              "name": "description",
              "type": "string"
            },
            {
              "internalType": "address",
              "name": "creator",
              "type": "address"
            },
            {
              "internalType": "uint256",
              "name": "reward",
              "type": "uint256"
            },
            {
              "internalType": "uint256",
              "name": "assignedAgentId",
              "type": "uint256"
            },
            {
              "internalType": "enum MissionManager.MissionStatus",
              "name": "status",
              "type": "uint8"
            },
            {
              "internalType": "uint256",
              "name": "createdAt",
              "type": "uint256"
            },
            {
              "internalType": "uint256",
              "name": "completedAt",
              "type": "uint256"
            }
          ],
          "internalType": "struct MissionManager.Mission",
          "name": "",
          "type": "tuple"
        }
      ],
      "stateMutability": "view",
      "type": "function"
    },
    {
      "inputs": [
        {
          "internalType": "uint256",
          "name": "",
          "type": "uint256"
        }
      ],
      "name": "missions",
      "outputs": [
        {
          "internalType": "string",
          "name": "title",
          "type": "string"
        },
        {
          "internalType": "string",
          "name": "description",
          "type": "string"
        },
        {
          "internalType": "address",
          "name": "creator",
          "type": "address"
        },
        {
          "internalType": "uint256",
          "name": "reward",
          "type": "uint256"
        },
        {
          "internalType": "uint256",
          "name": "assignedAgentId",
          "type": "uint256"
        },
        {
          "internalType": "enum MissionManager.MissionStatus",
          "name": "status",
          "type": "uint8"
        },
        {
          "internalType": "uint256",
          "name": "createdAt",
          "type": "uint256"
        },
        {
          "internalType": "uint256",
          "name": "completedAt",
          "type": "uint256"
        }
      ],
      "stateMutability": "view",
      "type": "function"
    },
    {
      "inputs": [],
      "name": "nextMissionId",
      "outputs": [
        {
          "internalType": "uint256",
          "name": "",
          "type": "uint256"
        }
      ],
      "stateMutability": "view",
      "type": "function"
    },
    {
      "inputs": [],
      "name": "owner",
      "outputs": [
        {
          "internalType": "address",
          "name": "",
          "type": "address"
        }
      ],
      "stateMutability": "view",
      "type": "function"
    },
    {
      "inputs": [],
      "name": "renounceOwnership",
      "outputs": [],
      "stateMutability": "nonpayable",
      "type": "function"
    },
    {
      "inputs": [],
      "name": "rewardToken",
      "outputs": [
        {
          "internalType": "contract IERC20",
          "name": "",
          "type": "address"
        }
      ],
      "stateMutability": "view",
      "type": "function"
    },
    {
      "inputs": [
        {
          "internalType": "address",
          "name": "newOwner",
          "type": "address"
        }
      ],
      "name": "transferOwnership",
      "outputs": [],
      "stateMutability": "nonpayable",
      "type": "function"
    }
  ],
  "bytecode": "0x60806040523480156200001157600080fd5b50604051620015b6380380620015b6833981016040819052620000349162000104565b816001600160a01b0381166200006457604051631e4fbdf760e01b81526000600482015260240160405180910390fd5b6200006f8162000097565b50600180546001600160a01b0319166001600160a01b0392909216919091179055506200013c565b600080546001600160a01b038381166001600160a01b0319831681178455604051919092169283917f8be0079c531659141344cd1fd0a4f28419497f9722a3daafe3b4186f6b6457e09190a35050565b80516001600160a01b0381168114620000ff57600080fd5b919050565b600080604083850312156200011857600080fd5b6200012383620000e7565b91506200013360208401620000e7565b90509250929050565b61146a806200014c6000396000f3fe608060405234801561001057600080fd5b50600436106100cf5760003560e01c80636428beb21161008c578063e70eb39211610066578063e70eb392146101a9578063eb2b94b5146101bc578063f2fde38b146101dc578063f7c618c1146101ef57600080fd5b80636428beb214610169578063715018a61461017c5780638da5cb5b1461018457600080fd5b806319aae978146100d45780632c8fe526146100e9578063426d634a1461011957806343e383301461012c57806354ffc90c1461013f5780635d456c2714610152575b600080fd5b6100e76100e2366004610f4b565b610202565b005b6100fc6100f7366004610f4b565b6102d4565b604051610110989796959493929190610fe2565b60405180910390f35b6100e761012736600461104e565b610434565b6100e761013a366004610f4b565b610536565b6100e761014d366004611113565b6106ec565b61015b60035481565b604051908152602001610110565b6100e7610177366004610f4b565b610962565b6100e7610ad9565b6000546001600160a01b03165b6040516001600160a01b039091168152602001610110565b6100e76101b736600461119c565b610aed565b6101cf6101ca366004610f4b565b610c78565b60405161011091906111c8565b6100e76101ea36600461125e565b610e31565b600154610191906001600160a01b031681565b61020a610e6f565b60008181526002602052604090206001600582015460ff16600481111561023357610233610faa565b1461027c5760405162461bcd60e51b8152602060048201526014602482015273135a5cdcda5bdb881b9bdd08185cdcda59db995960621b60448201526064015b60405180910390fd5b60058101805460ff191660021790554260078201556004810154600382015460405190815283907f7a6015f519a739f064a2285b8d44efaa80e21614821e48417893ecbd7b9dab009060200160405180910390a35050565b6002602052600090815260409020805481906102ef90611280565b80601f016020809104026020016040519081016040528092919081815260200182805461031b90611280565b80156103685780601f1061033d57610100808354040283529160200191610368565b820191906000526020600020905b81548152906001019060200180831161034b57829003601f168201915b50505050509080600101805461037d90611280565b80601f01602080910402602001604051908101604052809291908181526020018280546103a990611280565b80156103f65780601f106103cb576101008083540402835291602001916103f6565b820191906000526020600020905b8154815290600101906020018083116103d957829003601f168201915b5050506002840154600385015460048601546005870154600688015460079098015496976001600160a01b039094169692955090935060ff16919088565b600082815260026020526040812090600582015460ff16600481111561045c5761045c610faa565b1461049c5760405162461bcd60e51b815260206004820152601060248201526f26b4b9b9b4b7b7103737ba1037b832b760811b6044820152606401610273565b60028101546001600160a01b031633146104ee5760405162461bcd60e51b81526020600482015260136024820152722737ba1036b4b9b9b4b7b71031b932b0ba37b960691b6044820152606401610273565b6004810182905560058101805460ff19166001179055604051829084907fa04786446280b9d7ec63ec39182c9aa525fea199418f77315bc7769c57664d9d90600090a3505050565b6000818152600260208190526040909120908101546001600160a01b031633146105985760405162461bcd60e51b81526020600482015260136024820152722737ba1036b4b9b9b4b7b71031b932b0ba37b960691b6044820152606401610273565b6000600582015460ff1660048111156105b3576105b3610faa565b146105f05760405162461bcd60e51b815260206004820152600d60248201526c10d85b9b9bdd0818d85b98d95b609a1b6044820152606401610273565b60058101805460ff191660049081179091556001546002830154600384015460405163a9059cbb60e01b81526001600160a01b03928316948101949094526024840152169063a9059cbb906044016020604051808303816000875af115801561065d573d6000803e3d6000fd5b505050506040513d601f19601f8201168201806040525081019061068191906112ba565b6106bd5760405162461bcd60e51b815260206004820152600d60248201526c1499599d5b990819985a5b1959609a1b6044820152606401610273565b60405182907f42dccfd62fd8e37376cacdc9460f16fcd63f081ae6d456a3b65226259991873990600090a25050565b600081116107315760405162461bcd60e51b81526020600482015260126024820152710526577617264206d757374206265203e20360741b6044820152606401610273565b6001546040516323b872dd60e01b8152336004820152306024820152604481018390526001600160a01b03909116906323b872dd906064016020604051808303816000875af1158015610788573d6000803e3d6000fd5b505050506040513d601f19601f820116820180604052508101906107ac91906112ba565b6107f05760405162461bcd60e51b8152602060048201526015602482015274151bdad95b881d1c985b9cd9995c8819985a5b1959605a1b6044820152606401610273565b6003805460009182610801836112dc565b919050559050604051806101000160405280858152602001848152602001336001600160a01b03168152602001838152602001600081526020016000600481111561084e5761084e610faa565b815242602080830191909152600060409283018190528481526002909152208151819061087b9082611352565b50602082015160018201906108909082611352565b5060408201518160020160006101000a8154816001600160a01b0302191690836001600160a01b03160217905550606082015181600301556080820151816004015560a08201518160050160006101000a81548160ff021916908360048111156108fc576108fc610faa565b021790555060c0820151816006015560e08201518160070155905050336001600160a01b0316817faa94aca1c55b4cd7f43b7b87918c44a873eedd1e58db56cffd94186de8c38dba8685604051610954929190611412565b60405180910390a350505050565b61096a610e6f565b60008181526002602052604090206001600582015460ff16600481111561099357610993610faa565b146109d75760405162461bcd60e51b8152602060048201526014602482015273135a5cdcda5bdb881b9bdd08185cdcda59db995960621b6044820152606401610273565b60058101805460ff1916600390811790915560015460028301549183015460405163a9059cbb60e01b81526001600160a01b039384166004820152602481019190915291169063a9059cbb906044016020604051808303816000875af1158015610a45573d6000803e3d6000fd5b505050506040513d601f19601f82011682018060405250810190610a6991906112ba565b610aa55760405162461bcd60e51b815260206004820152600d60248201526c1499599d5b990819985a5b1959609a1b6044820152606401610273565b600481015460405183907fd32d5ee82dcf79658d023a049f3137385e9304aaf1cb516e989ddd119de3010590600090a35050565b610ae1610e6f565b610aeb6000610e9c565b565b610af5610e6f565b600082815260026020819052604090912090600582015460ff166004811115610b2057610b20610faa565b14610b655760405162461bcd60e51b8152602060048201526015602482015274135a5cdcda5bdb881b9bdd0818dbdb5c1b195d1959605a1b6044820152606401610273565b6000816003015411610bab5760405162461bcd60e51b815260206004820152600f60248201526e105b1c9958591e4818db185a5b5959608a1b6044820152606401610273565b600381018054600090915560015460405163a9059cbb60e01b81526001600160a01b038581166004830152602482018490529091169063a9059cbb906044016020604051808303816000875af1158015610c09573d6000803e3d6000fd5b505050506040513d601f19601f82011682018060405250810190610c2d91906112ba565b610c725760405162461bcd60e51b815260206004820152601660248201527514995dd85c99081d1c985b9cd9995c8819985a5b195960521b6044820152606401610273565b50505050565b610c80610eec565b6000828152600260205260409081902081516101008101909252805482908290610ca990611280565b80601f0160208091040260200160405190810160405280929190818152602001828054610cd590611280565b8015610d225780601f10610cf757610100808354040283529160200191610d22565b820191906000526020600020905b815481529060010190602001808311610d0557829003601f168201915b50505050508152602001600182018054610d3b90611280565b80601f0160208091040260200160405190810160405280929190818152602001828054610d6790611280565b8015610db45780601f10610d8957610100808354040283529160200191610db4565b820191906000526020600020905b815481529060010190602001808311610d9757829003601f168201915b505050918352505060028201546001600160a01b03166020820152600382015460408201526004808301546060830152600583015460809092019160ff1690811115610e0257610e02610faa565b6004811115610e1357610e13610faa565b81526006820154602082015260079091015460409091015292915050565b610e39610e6f565b6001600160a01b038116610e6357604051631e4fbdf760e01b815260006004820152602401610273565b610e6c81610e9c565b50565b6000546001600160a01b03163314610aeb5760405163118cdaa760e01b8152336004820152602401610273565b600080546001600160a01b038381166001600160a01b0319831681178455604051919092169283917f8be0079c531659141344cd1fd0a4f28419497f9722a3daafe3b4186f6b6457e09190a35050565b604051806101000160405280606081526020016060815260200160006001600160a01b03168152602001600081526020016000815260200160006004811115610f3757610f37610faa565b815260200160008152602001600081525090565b600060208284031215610f5d57600080fd5b5035919050565b6000815180845260005b81811015610f8a57602081850181015186830182015201610f6e565b506000602082860101526020601f19601f83011685010191505092915050565b634e487b7160e01b600052602160045260246000fd5b60058110610fde57634e487b7160e01b600052602160045260246000fd5b9052565b6000610100808352610ff68184018c610f64565b9050828103602084015261100a818b610f64565b6001600160a01b038a16604085015260608401899052608084018890529150611038905060a0830186610fc0565b60c082019390935260e001529695505050505050565b6000806040838503121561106157600080fd5b50508035926020909101359150565b634e487b7160e01b600052604160045260246000fd5b600082601f83011261109757600080fd5b813567ffffffffffffffff808211156110b2576110b2611070565b604051601f8301601f19908116603f011681019082821181831017156110da576110da611070565b816040528381528660208588010111156110f357600080fd5b836020870160208301376000602085830101528094505050505092915050565b60008060006060848603121561112857600080fd5b833567ffffffffffffffff8082111561114057600080fd5b61114c87838801611086565b9450602086013591508082111561116257600080fd5b5061116f86828701611086565b925050604084013590509250925092565b80356001600160a01b038116811461119757600080fd5b919050565b600080604083850312156111af57600080fd5b823591506111bf60208401611180565b90509250929050565b60208152600082516101008060208501526111e7610120850183610f64565b91506020850151601f198584030160408601526112048382610f64565b92505060018060a01b03604086015116606085015260608501516080850152608085015160a085015260a085015161123f60c0860182610fc0565b5060c085015160e085015260e085015181850152508091505092915050565b60006020828403121561127057600080fd5b61127982611180565b9392505050565b600181811c9082168061129457607f821691505b6020821081036112b457634e487b7160e01b600052602260045260246000fd5b50919050565b6000602082840312156112cc57600080fd5b8151801515811461127957600080fd5b6000600182016112fc57634e487b7160e01b600052601160045260246000fd5b5060010190565b601f82111561134d57600081815260208120601f850160051c8101602086101561132a5750805b601f850160051c820191505b8181101561134957828155600101611336565b5050505b505050565b815167ffffffffffffffff81111561136c5761136c611070565b6113808161137a8454611280565b84611303565b602080601f8311600181146113b5576000841561139d5750858301515b600019600386901b1c1916600185901b178555611349565b600085815260208120601f198616915b828110156113e4578886015182559484019460019091019084016113c5565b50858210156114025787850151600019600388901b60f8161c191681555b5050505050600190811b01905550565b6040815260006114256040830185610f64565b9050826020830152939250505056fea2646970667358221220dfa385947f471e9a286275dc7f2afc0a30a253407404aded1758faae314e382d64736f6c63430008140033",
  "linkReferences": {},
  "deployedLinkReferences": {}
}