{
  "_format": "hh-sol-artifact-1",
  "contractName": "AgentRegistry",
  "sourceName": "contracts/AgentRegistry.sol",
  "abi": [
    {
      "inputs": [
        {
          "internalType": "address",
          "name": "initialOwner",
          "type": "address"
        }
      ],
      "stateMutability": "nonpayable",
      "type": "constructor"
    },
    {
      "inputs": [
        {
          "internalType": "address",
          "name": "owner",
          "type": "address"
        }
      ],
      "name": "OwnableInvalidOwner",
      "type": "error"
    },
    {
      "inputs": [
        {
          "internalType": "address",
          "name": "account",
          "type": "address"
        }
      ],
      "name": "OwnableUnauthorizedAccount",
      "type": "error"
    },
    {
      "anonymous": false,
      "inputs": [
        {
          "indexed": true,
          "internalType": "uint256",
          "name": "agentId",
          "type": "uint256"
        },
        {
          "indexed": false,
          "internalType": "string",
          "name": "name",
          "type": "string"
        },
        {
          "indexed": true,
          "internalType": "address",
          "name": "owner",
          "type": "address"
        }
      ],
      "name": "AgentRegistered",
      "type": "event"
    },
    {
      "anonymous": false,
      "inputs": [
        {
          "indexed": true,
          "internalType": "uint256",
          "name": "agentId",
          "type": "uint256"
        },
        {
          "indexed": false,
          "internalType": "bool",
          "name": "isActive",
          "type": "bool"
        }
      ],
      "name": "AgentStatusChanged",
      "type": "event"
    },
    {
      "anonymous": false,
      "inputs": [
        {
          "indexed": true,
          "internalType": "address",
          "name": "previousOwner",
          "type": "address"
        },
        {
          "indexed": true,
          "internalType": "address",
          "name": "newOwner",
          "type": "address"
        }
      ],
      "name": "OwnershipTransferred",
      "type": "event"
    },
    {
      "inputs": [
        {
          "internalType": "uint256",
          "name": "",
          "type": "uint256"
        }
      ],
      "name": "agents",
      "outputs": [
        {
          "internalType": "string",
          "name": "name",
          "type": "string"
        },
        {
          "internalType": "string",
          "name": "metadataURI",
          "type": "string"
        },
        {
          "internalType": "address",
          "name": "owner",
          "type": "address"
        },
        {
          "internalType": "bool",
          "name": "isActive",
          "type": "bool"
        },
        {
          "internalType": "uint256",
          "name": "registeredAt",
          "type": "uint256"
        }
      ],
      "stateMutability": "view",
      "type": "function"
    },
    {
      "inputs": [
        {
          "internalType": "uint256",
          "name": "_agentId",
          "type": "uint256"
        }
      ],
      "name": "getAgent",
      "outputs": [
        {
          "components": [
            {
              "internalType": "string",
              "name": "name",
              "type": "string"
            },
            {
              "internalType": "string",
              "name": "metadataURI",
              "type": "string"
            },
            {
              "internalType": "address",
              "name": "owner",
              "type": "address"
            },
            {
              "internalType": "bool",
              "name": "isActive",
              "type": "bool"
            },
            {
              "internalType": "uint256",
              "name": "registeredAt",
              "type": "uint256"
            }
          ],
          "internalType": "struct AgentRegistry.Agent",
          "name": "",
          "type": "tuple"
        }
      ],
      "stateMutability": "view",
      "type": "function"
    },
    {
      "inputs": [],
      "name": "nextAgentId",
      "outputs": [
        {
          "internalType": "uint256",
          "name": "",
          "type": "uint256"
        }
      ],
      "stateMutability": "view",
      "type": "function"
    },
    {
      "inputs": [],
      "name": "owner",
      "outputs": [
        {
          "internalType": "address",
          "name": "",
          "type": "address"
        }
      ],
      "stateMutability": "view",
      "type": "function"
    },
    {
      "inputs": [
        {
          "internalType": "string",
          "name": "_name",
          "type": "string"
        },
        {
          "internalType": "string",
          "name": "_metadataURI",
          "type": "string"
        }
      ],
      "name": "registerAgent",
      "outputs": [],
      "stateMutability": "nonpayable",
      "type": "function"
    },
    {
      "inputs": [],
      "name": "renounceOwnership",
      "outputs": [],
      "stateMutability": "nonpayable",
      "type": "function"
    },
    {
      "inputs": [
        {
          "internalType": "uint256",
          "name": "_agentId",
          "type": "uint256"
        }
      ],
      "name": "toggleAgentStatus",
      "outputs": [],
      "stateMutability": "nonpayable",
      "type": "function"
    },
    {
      "inputs": [
        {
          "internalType": "address",
          "name": "newOwner",
          "type": "address"
        }
      ],
      "name": "transferOwnership",
      "outputs": [],
      "stateMutability": "nonpayable",
      "type": "function"
    }
  ],
  "bytecode": "0x608060405234801561001057600080fd5b50604051610bed380380610bed83398101604081905261002f916100be565b806001600160a01b03811661005e57604051631e4fbdf760e01b81526000600482015260240160405180910390fd5b6100678161006e565b50506100ee565b600080546001600160a01b038381166001600160a01b0319831681178455604051919092169283917f8be0079c531659141344cd1fd0a4f28419497f9722a3daafe3b4186f6b6457e09190a35050565b6000602082840312156100d057600080fd5b81516001600160a01b03811681146100e757600080fd5b9392505050565b610af0806100fd6000396000f3fe608060405234801561001057600080fd5b50600436106100885760003560e01c8063715018a61161005b578063715018a6146101065780638da5cb5b1461010e578063f2fde38b14610129578063ff17aca41461013c57600080fd5b80632de5aaf71461008d57806330efc498146100b65780634131da0c146100cd578063513856c8146100e2575b600080fd5b6100a061009b3660046106e7565b61014f565b6040516100ad9190610746565b60405180910390f35b6100bf60025481565b6040519081526020016100ad565b6100e06100db3660046106e7565b6102fe565b005b6100f56100f03660046106e7565b6103d3565b6040516100ad9594939291906107b4565b6100e0610521565b6000546040516001600160a01b0390911681526020016100ad565b6100e0610137366004610800565b610535565b6100e061014a3660046108d3565b610573565b61018c6040518060a00160405280606081526020016060815260200160006001600160a01b03168152602001600015158152602001600081525090565b60008281526001602052604090819020815160a081019092528054829082906101b490610937565b80601f01602080910402602001604051908101604052809291908181526020018280546101e090610937565b801561022d5780601f106102025761010080835404028352916020019161022d565b820191906000526020600020905b81548152906001019060200180831161021057829003601f168201915b5050505050815260200160018201805461024690610937565b80601f016020809104026020016040519081016040528092919081815260200182805461027290610937565b80156102bf5780601f10610294576101008083540402835291602001916102bf565b820191906000526020600020905b8154815290600101906020018083116102a257829003601f168201915b505050918352505060028201546001600160a01b0381166020830152600160a01b900460ff161515604082015260039091015460609091015292915050565b6000818152600160205260409020600201546001600160a01b0316331461035c5760405162461bcd60e51b815260206004820152600d60248201526c2737ba103a34329037bbb732b960991b60448201526064015b60405180910390fd5b60008181526001602052604090819020600201805460ff600160a01b808304821615810260ff60a01b199093169290921792839055925184937f5b7fa91ee392647b777096db0d386dc7cb7a3bfbc86ae6a10e0500de3a5ad02f936103c8939004161515815260200190565b60405180910390a250565b6001602052600090815260409020805481906103ee90610937565b80601f016020809104026020016040519081016040528092919081815260200182805461041a90610937565b80156104675780601f1061043c57610100808354040283529160200191610467565b820191906000526020600020905b81548152906001019060200180831161044a57829003601f168201915b50505050509080600101805461047c90610937565b80601f01602080910402602001604051908101604052809291908181526020018280546104a890610937565b80156104f55780601f106104ca576101008083540402835291602001916104f5565b820191906000526020600020905b8154815290600101906020018083116104d857829003601f168201915b50505050600283015460039093015491926001600160a01b03811692600160a01b90910460ff16915085565b61052961066a565b6105336000610697565b565b61053d61066a565b6001600160a01b03811661056757604051631e4fbdf760e01b815260006004820152602401610353565b61057081610697565b50565b600280546000918261058483610971565b909155506040805160a0810182528581526020808201869052338284015260016060830181905242608084015260008581529152919091208151929350909181906105cf90826109e7565b50602082015160018201906105e490826109e7565b5060408281015160028301805460608601511515600160a01b026001600160a81b03199091166001600160a01b039093169290921791909117905560809092015160039091015551339082907faef1fcdf962a03943b677ae3b92ef1b34c972aeef794ed6e9ba5f599b461883b9061065d908790610aa7565b60405180910390a3505050565b6000546001600160a01b031633146105335760405163118cdaa760e01b8152336004820152602401610353565b600080546001600160a01b038381166001600160a01b0319831681178455604051919092169283917f8be0079c531659141344cd1fd0a4f28419497f9722a3daafe3b4186f6b6457e09190a35050565b6000602082840312156106f957600080fd5b5035919050565b6000815180845260005b818110156107265760208185018101518683018201520161070a565b506000602082860101526020601f19601f83011685010191505092915050565b602081526000825160a0602084015261076260c0840182610700565b90506020840151601f1984830301604085015261077f8282610700565b91505060018060a01b036040850151166060840152606084015115156080840152608084015160a08401528091505092915050565b60a0815260006107c760a0830188610700565b82810360208401526107d98188610700565b6001600160a01b039690961660408401525050911515606083015260809091015292915050565b60006020828403121561081257600080fd5b81356001600160a01b038116811461082957600080fd5b9392505050565b634e487b7160e01b600052604160045260246000fd5b600082601f83011261085757600080fd5b813567ffffffffffffffff8082111561087257610872610830565b604051601f8301601f19908116603f0116810190828211818310171561089a5761089a610830565b816040528381528660208588010111156108b357600080fd5b836020870160208301376000602085830101528094505050505092915050565b600080604083850312156108e657600080fd5b823567ffffffffffffffff808211156108fe57600080fd5b61090a86838701610846565b9350602085013591508082111561092057600080fd5b5061092d85828601610846565b9150509250929050565b600181811c9082168061094b57607f821691505b60208210810361096b57634e487b7160e01b600052602260045260246000fd5b50919050565b60006001820161099157634e487b7160e01b600052601160045260246000fd5b5060010190565b601f8211156109e257600081815260208120601f850160051c810160208610156109bf5750805b601f850160051c820191505b818110156109de578281556001016109cb565b5050505b505050565b815167ffffffffffffffff811115610a0157610a01610830565b610a1581610a0f8454610937565b84610998565b602080601f831160018114610a4a5760008415610a325750858301515b600019600386901b1c1916600185901b1785556109de565b600085815260208120601f198616915b82811015610a7957888601518255948401946001909101908401610a5a565b5085821015610a975787850151600019600388901b60f8161c191681555b5050505050600190811b01905550565b602081526000610829602083018461070056fea2646970667358221220cfd2519e91dff5a70a797c4129857ea7b1e1ced5b9d7ff89b8593e8bd0778b8764736f6c63430008140033",
  "linkReferences": {},
  "deployedLinkReferences": {}
}